:02000002D0002C
:1040000000400D0004520D00000006000C000501E8
:084010000401BD0B00000000DB
:04401800B84F0D0090
:10401C0009480A49884208B505D0094A824202D0AB
:10402C00121A00F081FF0748074A0021121A00F00B
:10403C0089FF014808BD00BFC8E5032074510D007D
:10404C0030E6032030E60320F0E7032070B5074E7E
:10405C00074C00F0AFFBA41BA4080025A54200D11F
:10406C0070BD56F8043B98470135F7E740510D00F9
:10407C0064510D0000F01CB808B500F029F8BDE83B
:10408C00084000F059BB00F00FBA00F015BA0078E8
:10409C00B0FA80F04009704701230370704710B5E7
:1040AC000446006808B100F007FA204610BD000075
:1040BC0008B50121072000F091FE00210E2000F030
:1040CC008DFE024B40F6FF721A8008BD42E60320BB
:1040DC0013B50E2000F093FE0C4B1A8884B2A2424A
:1040EC0028BF22461A800A4B1988A14238BF2146A4
:1040FC001980FF2300932046002300F0DBFA81B2E5
:10410C00072002B0BDE8104000F090BE42E603204C
:10411C0040E6032038B50A4C0A4BA3600025032067
:10412C002560A580A57100F033F90749074A2046A0
:10413C0000F0E2FE29460120BDE8384000F030B91D
:10414C0034E603200000FFFFAB400D0030E60320F7
:10415C0008B5024B1B689B68019308BD68020300FD
:10416C0008B5024B1B68DB68019308BD68020300AD
:10417C0008B5024B1B685B68019308BD2C02030059
:10418C0008B5024B1B689B68019308BD2C02030009
:10419C0008B5024B1B68DB68019308BD2C020300B9
:1041AC0008B5024B1B689B6A019308BD2C020300E7
:1041BC0008B5024B1B681B6B019308BD2C02030056
:1041CC0008B5024B1B689B6F019308BD2C020300C2
:1041DC0008B5024B1B685B68019308BD180203000D
:1041EC0008B5024B1B685B69019308BD18020300FC
:1041FC0008B5024B1B685B6C019308BD48020300B9
:10420C0008B5024B1B689B6C019308BD4802030068
:10421C0008B5024B1B685B69019308BD640203007F
:10422C0008B5024B1B681B68019308BD3C020300D8
:10423C0008B5024B1B68DB68019308BD3C02030008
:10424C0008B5024B1B681B69019308BD3C020300B7
:10425C0008B5024B1B685B69019308BD3C02030067
:10426C0008B5024B1B689B69019308BD3C02030017
:10427C0008B5024B1B68DB69019308BD3C020300C7
:10428C0008B5024B1B681B6A019308BD3C02030076
:10429C0008B5024B1B689B6A019308BD3C020300E6
:1042AC0008B5024B1B681B6A019308BD280203006A
:1042BC0008B5024B1B685B6A019308BD280203001A
:1042CC0008B5024B1B689B6A019308BD28020300CA
:1042DC0008B5024B1B68DB6A019308BD280203007A
:1042EC0008B5024B1B681B6B019308BD2802030029
:1042FC0008B5024B1B685B6B019308BD28020300D9
:10430C0008B5024B1B681B6C019308BD2802030007
:10431C0008B5024B1B68DB69019308BD3002030032
:10432C0008B5024B1B681B6A019308BD30020300E1
:10433C0008B5024B1B681B68019308BD4C020300B7
:10434C0008B5024B1B681B69019308BD4C020300A6
:10435C0008B5024B1B685B69019308BD4C02030056
:10436C0008B5024B1B689B69019308BD4C02030006
:10437C0008B5024B1B68DB69019308BD4C020300B6
:10438C0008B5024B1B681B6A019308BD4C02030065
:10439C0008B5024B1B685B68019308BD2002030043
:1043AC0008B5024B1B68DB6A019308BD20020300B1
:1043BC0008B5034B1B68D3F88830019308BD000087
:1043CC002002030008B5034B1B68D3F8943001930B
:1043DC0008BD00002002030008B5024B1B685B6897
:1043EC00019308BD4002030008B5024B1B689B6893
:1043FC00019308BD4002030008B5024B1B68DB6843
:10440C00019308BD4002030008B5024B1B681B69F1
:10441C00019308BD4002030008B5024B1B685B69A1
:10442C00019308BD4002030008B5024B1B689B6951
:10443C00019308BD4002030008B5024B1B68DB6901
:10444C00019308BD4002030008B5024B1B681B6AB0
:10445C00019308BD4002030008B5024B1B681B6B9F
:10446C00019308BD4002030008B5024B1B685B6B4F
:10447C00019308BD4002030008B5024B1B681B6C7E
:10448C00019308BD4002030008B5024B1B685B6C2E
:10449C00019308BD4002030008B5024B1B68DB6B9F
:1044AC00019308BD4402030008B5024B1B681B684E
:1044BC00019308BD1C02030008B5024B1B685B6826
:1044CC00019308BD1C02030008B5024B1B685B6C12
:1044DC00019308BD1C020300002240681146FFF73F
:1044EC00B3BF002240681146FFF7BEBF40680022F0
:1044FC00FFF7B2BF4068002281F00101FFF79CBFBB
:10450C00002340681A461946FFF78EBF0023406807
:10451C001A461946FFF780BF002240681146FFF784
:10452C0073BF002240681146FFF75EBF406800224F
:10453C000221FFF761BF002340681A46FFF74CBF0A
:10454C00024B03225A60024A1A60704744E6032069
:10455C00D44F0D0010B5044608462170FFF7D8FE65
:10456C0000236360204610BD10B5094B094C022294
:10457C0000201A60084B2060A080A071A360FFF798
:10458C0007FF2046054A0649BDE8104000F0B4BCC0
:10459C0058E603204CE603200000FFFF30E6032022
:1045AC00AB400D0010B50446006808B1FFF728FEBB
:1045BC00204610BD10B58368044613B10322014692
:1045CC009847204610BD000010B5064C002320462D
:1045DC002360FFF70DFE2046034A0449BDE8104056
:1045EC0000F08ABC5CE6032030E60320B1450D00E8
:1045FC00F8B506460D468F180024BD420CD0336822
:10460C0015F8011B9B6830469847031E01DB1C44C0
:10461C00F3E7002C08BF1C462046F8BD13B5044632
:10462C00084659B1019100F0B9FC23680199DB6887
:10463C000246204602B0BDE81040184702B010BD3B
:10464C0003689B68184730B58BB000238DF8243075
:10465C00012A98BF0A2209AC0D46B1FBF2F101FB0D
:10466C00125303F0FF03092B94BF30333733DBB203
:10467C00AA4204F8013DEFD92146FFF7CFFF0BB05A
:10468C0030BD002340681A461946FFF7C5BE00002E
:10469C00014B024A1A60704760E6032008500D0077
:1046AC00024B1A68024B1A60704700BFC8E5032022
:1046BC0064E603208A4210B507D0029C401AE41A23
:1046CC006043521A90FBF2F0184410BD10B504462A
:1046DC00FFF770FF204610BD0348044A044900232D
:1046EC00836000F009BC00BF68E6032030E60320BD
:1046FC00D9460D00014B1860704700BFCCE5032074
:10470C0008B50B4B43B100F057F903681B69984788
:10471C00002801DDAFF30080064B43B100F0CAF96D
:10472C0003681B699847002801DDAFF3008008BDC2
:10473C00000000000000000008B5FFF7E1FFFFF7E4
:10474C004FFD014B186008BDD4E703200248034A13
:10475C000349121A00F0E8BB00F4032004F4032010
:10476C0070510D0007B5002300931A466FF07701C6
:10477C00FFF728FE03B05DF804FB000007B5438883
:10478C000A2B08D0502B0BD1094B1B684BB103B033
:10479C005DF804EB1847FFF7E5FF03B05DF804FB89
:1047AC00002300931A466FF07701FFF70BFEF4E736
:1047BC007CE6032038B5124C1248134D0021FFF74C
:1047CC0083FE2368AB42114B0CBF012200221A70EE
:1047DC0002D0FFF7BBFF2560FFF7FAFC044600F0A0
:1047EC00B9FB0B4B13B12046AFF3008000210848F6
:1047FC00FFF752FEBDE8384006480021FFF7D8BD50
:10480C0000F4032001470D001E1C279A78E60320B4
:10481C000000000089470D00704710B518210446B0
:10482C0000F06FFB204610BDF0B5037D062B8DB05C
:10483C000E4600F104074FF0000412D000F10805F9
:10484C0015F8011D0A223046FFF7FDFEAF42044465
:10485C0019D0002CF4D02E213046FFF7F1FE044481
:10486C00EEE72F236A4639460A208DF80040FFF701
:10487C00CFFC684600F092FB33680246DB68694661
:10488C0030469847044620460DB0F0BD10B5054B98
:10489C000446112240F8043B002100F053FB204653
:1048AC0010BD00BF30500D000346074A10B543F849
:1048BC00042B01F1100251F8044B43F8044B9142C4
:1048CC00F9D10A781A7010BD30500D0010B59DF852
:1048DC00084044EA032343EA024242EA016104230A
:1048EC004160037510BD000013B5054B0360CB7818
:1048FC0000938B784A780978FFF7E8FF02B010BD77
:10490C0030500D0041747047704708B50021007C91
:10491C00FFF726FD40EAE07008BD08B50121007CD8
:10492C00FFF71EFD40EAE07008BD08B5007CFFF7FC
:10493C000FFD20EAE07008BD08B5007CFFF700FD14
:10494C0020EAE07008BD13B50446007C0191FFF726
:10495C00FFFC0028019901DC607C20B1207CFFF772
:10496C0007FD20EAE07002B010BD007CFFF708BD27
:10497C0010B51421044600F0C4FA204610BD000006
:10498C0010B54FF47A73044608460021C4E90113AC
:10499C00044B23600123207463741146FFF7C8FC99
:1049AC00204610BD44500D0010B5142204460021C1
:1049BC0000F0C8FA204610BD10B5104C88B003A802
:1049CC00FFF7F2FF2178BFF35B8F11F0010111D1DA
:1049DC0020460191FFF75BFB019958B103AA0848E7
:1049EC00FFF7CEFF2046FFF757FB064A064904485F
:1049FC0000F082FA024808B010BD00BF80E6032028
:104A0C0084E6032030E6032015490D0070474174FD
:104A1C00704708B5007CFFF73BFC20EAE07008BD4E
:104A2C0008B5007CFFF70CFC20EAE07008BD08B567
:104A3C00007CFFF715FC40EAE07008BD08B5007C6F
:104A4C00FFF706FC40EAE07008BD007CFFF710BCE5
:104A5C0037B5457C04462DB1207C03B0BDE8304011
:104A6C00FFF7E6BB007C0191FFF712FC00280199CF
:104A7C00F2DC284603B030BD10B51421044600F01A
:104A8C0040FA204610BD000010B54FF0000C044653
:104A9C00084611464FF47A72C4E901C2044A2260F6
:104AAC000122207462741A46FFF7BAFB204610BD2F
:104ABC0074500D0013B50E4C2178BFF35B8F11F0C1
:104ACC00010112D120460191FFF7E1FA019960B181
:104ADC00084A094B0948FFF7D7FF2046FFF7DCFAD5
:104AEC00074A0849054800F007FA044802B010BD0F
:104AFC0098E603209CE6032020E70320A4E703208C
:104B0C0030E60320194A0D007047F8B506461546E5
:104B1C000C468F18BC4206D0336814F8011B9B68F6
:104B2C0030469847F6E72846F8BD007C0022FFF790
:104B3C00B7BB007C0021FFF7BBBB007C0021FFF75B
:104B4C00BFBB007C0021FFF7C3BB007C0021FFF73B
:104B5C00C7BB10B51421044600F0D3F9204610BD94
:104B6C0010B54FF47A73044608460021C4E90113CA
:104B7C00034B236020741146FFF7C2FB204610BD87
:104B8C00A4500D00002240681146FFF73DBC0022E6
:104B9C0040681146FFF758BC002240681146FFF7E9
:104BAC0063BC40680022FFF757BC4068002281F0CC
:104BBC000101FFF741BC002340681A461946FFF774
:104BCC0033BC002240681146FFF70EBC406800223F
:104BDC000221FFF711BC002340681A46FFF7FCBB0B
:104BEC00024B04225A60024A1A607047B8E703204D
:104BFC00CC500D00002340681A46FFF7EDBB40680F
:104C0C0000220221FFF7F8BB002240681146FFF793
:104C1C00EBBB002240681146FFF7F6BB002340684F
:104C2C001A461946FFF7F8BB002340681A46194686
:104C3C00FFF7FABB40680021FFF71EBC406800215B
:104C4C00FFF722BC4068002281F00101FFF7F4BBA2
:104C5C0040680022FFF700BC002240681146FFF7B5
:104C6C0003BC002240681146FFF7EEBB2DE9F04370
:104C7C00002495B016460D460746FFF707FE214661
:104C8C0018220EA8009400F05DF94023CDE90C34F5
:104C9C0021466B460CAA3046FFF762FA0446002800
:104CAC004CD1024601216868FFF7AEFB0221804619
:104CBC0022466868FFF7A8FB009E81462146002E1D
:104CCC003CD000293AD17368022B03D00A2B11D0A7
:104CDC00F669F4E7B8F1000F0AD0716906A804313F
:104CEC0007ADFFF701FE0FCD3C1D0FC42B682370E1
:104CFC004146EDE7B9F1000F01D14946E8E7746987
:104D0C00102201A800F01EF906238DF8143001AD15
:104D1C0004F108031834186859682A4603C208338A
:104D2C00A3421546F7D101A906A807ADFFF7BCFDB4
:104D3C000FCD3C1D0FC42B682370DEE70098FFF7E6
:104D4C0007FA384615B0BDE8F0830000024B034A61
:104D5C001A6000225A607047C0E7032008510D000A
:104D6C00232813B502D9002002B010BDA0F10B030B
:104D7C00022B1AD8174C2178BFF35B8F11F001016D
:104D8C000BD120460191FFF782F9019928B1124805
:104D9C00FFF7E0FB2046FFF77FF90F4B1878FFF782
:104DAC00BFFA0028DFD10120DEE7012809D800F086
:104DBC007BF80021007CFFF79BFA80F00100C0B269
:104DCC00D2E709380128EED8FFF774FE007CFFF714
:104DDC0057FAF2E7C8E70320CCE70320232838B5BD
:104DEC0004460D460AD8FF2908D0FFF7B9FF28B1B1
:104DFC0029462046BDE83840FFF7C2B938BD0D281A
:104E0C0010B504469CBF0E34A4B22046FFF7A8FF91
:104E1C0050B103212046FFF7ABF9032804D12046FB
:104E2C00BDE81040FFF7C4B9002010BD38B50446EA
:104E3C000D46FFF795FFF0B104212046FFF798F9D6
:104E4C00042805D1A9B22046BDE83840FFF7A8B91F
:104E5C0002212046FFF78CF902280CD12046FFF7DF
:104E6C0097F9012801D0042805D129462046BDE830
:104E7C003840FFF7A5B938BD38B50023202543804D
:104E8C00142304460380856005610649284600F01A
:104E9C003AF804496060284600F035F8E060204696
:104EAC0038BD00BF3C510D0030B50F4D2978BFF314
:104EBC005B8F11F0010487B013D12846FFF7E7F898
:104ECC0078B101A8FFF7D8FF01AA21460748FFF7E0
:104EDC0047FE2846FFF7E0F8054A0649034800F06C
:104EEC000BF8024807B030BDD8E70320DCE70320FD
:104EFC0030E60320154B0D000B460146184600F01A
:104F0C0005B8FFF7C2B8FFF7BEB8000010B5054CE6
:104F1C0013462CB10A4601460220AFF3008010BDA7
:104F2C002046FCE7000000000A44914200F1FF33E8
:104F3C0000D1704710B511F8014B03F8014F9142A5
:104F4C00F9D110BD02440346934200D1704703F8D7
:104F5C00011BF9E738B50D4B1D68AB6B04467BB9EB
:104F6C001820FFF7A1FA0A4A0A4BA863C0E90023EC
:104F7C00094B83600B23838101220023C0E90423A6
:104F8C00AB6B00221C615A6138BD00BFCCE503201D
:104F9C000E33CDAB34126DE6ECDE0500034613F890
:104FAC00012B002AFBD1181A013870471D400D0047
:104FBC0059400D0081400D0085400D00000000009F
:104FCC00000000000000000043450D0039450D00B5
:104FDC002F450D0025450D0019450D000D450D0003
:104FEC00414C0D00494C0D0001450D00F9440D00DC
:104FFC00EF440D00E5440D00794C0D00617070001C
:10500C0025592D256D2D25645425483A254D3A25D5
:10501C0053257A0061736374696D650000000000AC
:10502C000000000035480D0025480D0027480D00F4
:10503C00000000000000000015490D007D490D0026
:10504C0053490D00FD450D0045490D0017490D0054
:10505C0027490D0077490D0037490D0011490D0006
:10506C000000000000000000194A0D00854A0D00E8
:10507C005D4A0D00FD450D002D4A0D00494A0D00FD
:10508C003B4A0D00574A0D001B4A0D001F4A0D00EC
:10509C000000000000000000154B0D005F4B0D00E0
:1050AC00374B0D00174B0D003F4B0D00474B0D00C0
:1050BC004F4B0D00574B0D0000000000000000008E
:1050CC00E34B0D00D94B0D00CF4B0D00914B0D0058
:1050DC008F460D00C34B0D00414C0D00494C0D008B
:1050EC00B74B0D00AF4B0D00A54B0D009B4B0D00AE
:1050FC00794C0D000000000000000000014C0D0078
:10510C000B4C0D00154C0D001F4C0D00294C0D00C7
:10511C00354C0D00414C0D00494C0D00514C0D000F
:10512C005D4C0D00654C0D006F4C0D00794C0D0065
:10513C000000000021410D004D450D0075450D008E
:10514C00D5450D009D460D00AD460D00E5460D0004
:10515C00ED4B0D00594D0D0000000000000000004B
:04516C00000000003F
:04517000000000003B
:1051740020500D00D0E503200000000000000000D6
:10518400000000000000000000000000000000001B
:10519400000000000000000000000000000000000B
:1051A40000000000000000000000000000000000FB
:1051B40000000000000000000000000000000000EB
:1051C40000000000000000000000000000000000DB
:0851D4000000000000000000D3
:1051DC00FFFFFFFF00000102030405060708090A90
:1051EC000B0C0D0E0F101112131415161718191A8B
:0851FC001B1C1D1E1F202800D2
:045204007856341292
:04000003D000401CCD
:00000001FF
